{"abi":[{"type":"constructor","inputs":[],"stateMutability":"nonpayable"},{"type":"receive","stateMutability":"payable"},{"type":"function","name":"balances","inputs":[{"name":"","type":"address","internalType":"address"}],"outputs":[{"name":"","type":"uint256","internalType":"uint256"}],"stateMutability":"view"},{"type":"function","name":"bondSize","inputs":[],"outputs":[{"name":"","type":"uint256","internalType":"uint256"}],"stateMutability":"view"},{"type":"function","name":"challenge","inputs":[{"name":"challengedBlockNumber","type":"uint256","internalType":"uint256"},{"name":"challengedCommitment","type":"bytes","internalType":"bytes"}],"outputs":[],"stateMutability":"payable"},{"type":"function","name":"challengeWindow","inputs":[],"outputs":[{"name":"","type":"uint256","internalType":"uint256"}],"stateMutability":"view"},{"type":"function","name":"deposit","inputs":[],"outputs":[],"stateMutability":"payable"},{"type":"function","name":"fixedResolutionCost","inputs":[],"outputs":[{"name":"","type":"uint256","internalType":"uint256"}],"stateMutability":"view"},{"type":"function","name":"getChallenge","inputs":[{"name":"challengedBlockNumber","type":"uint256","internalType":"uint256"},{"name":"challengedCommitment","type":"bytes","internalType":"bytes"}],"outputs":[{"name":"","type":"tuple","internalType":"struct Challenge","components":[{"name":"challenger","type":"address","internalType":"address"},{"name":"lockedBond","type":"uint256","internalType":"uint256"},{"name":"startBlock","type":"uint256","internalType":"uint256"},{"name":"resolvedBlock","type":"uint256","internalType":"uint256"}]}],"stateMutability":"view"},{"type":"function","name":"getChallengeStatus","inputs":[{"name":"challengedBlockNumber","type":"uint256","internalType":"uint256"},{"name":"challengedCommitment","type":"bytes","internalType":"bytes"}],"outputs":[{"name":"","type":"uint8","internalType":"enum ChallengeStatus"}],"stateMutability":"view"},{"type":"function","name":"initialize","inputs":[{"name":"_owner","type":"address","internalType":"address"},{"name":"_challengeWindow","type":"uint256","internalType":"uint256"},{"name":"_resolveWindow","type":"uint256","internalType":"uint256"},{"name":"_bondSize","type":"uint256","internalType":"uint256"},{"name":"_resolverRefundPercentage","type":"uint256","internalType":"uint256"}],"outputs":[],"stateMutability":"nonpayable"},{"type":"function","name":"owner","inputs":[],"outputs":[{"name":"","type":"address","internalType":"address"}],"stateMutability":"view"},{"type":"function","name":"renounceOwnership","inputs":[],"outputs":[],"stateMutability":"nonpayable"},{"type":"function","name":"resolve","inputs":[{"name":"challengedBlockNumber","type":"uint256","internalType":"uint256"},{"name":"challengedCommitment","type":"bytes","internalType":"bytes"},{"name":"resolveData","type":"bytes","internalType":"bytes"}],"outputs":[],"stateMutability":"nonpayable"},{"type":"function","name":"resolveWindow","inputs":[],"outputs":[{"name":"","type":"uint256","internalType":"uint256"}],"stateMutability":"view"},{"type":"function","name":"resolverRefundPercentage","inputs":[],"outputs":[{"name":"","type":"uint256","internalType":"uint256"}],"stateMutability":"view"},{"type":"function","name":"setBondSize","inputs":[{"name":"_bondSize","type":"uint256","internalType":"uint256"}],"outputs":[],"stateMutability":"nonpayable"},{"type":"function","name":"setResolverRefundPercentage","inputs":[{"name":"_resolverRefundPercentage","type":"uint256","internalType":"uint256"}],"outputs":[],"stateMutability":"nonpayable"},{"type":"function","name":"transferOwnership","inputs":[{"name":"newOwner","type":"address","internalType":"address"}],"outputs":[],"stateMutability":"nonpayable"},{"type":"function","name":"unlockBond","inputs":[{"name":"challengedBlockNumber","type":"uint256","internalType":"uint256"},{"name":"challengedCommitment","type":"bytes","internalType":"bytes"}],"outputs":[],"stateMutability":"nonpayable"},{"type":"function","name":"validateCommitment","inputs":[{"name":"commitment","type":"bytes","internalType":"bytes"}],"outputs":[],"stateMutability":"pure"},{"type":"function","name":"variableResolutionCost","inputs":[],"outputs":[{"name":"","type":"uint256","internalType":"uint256"}],"stateMutability":"view"},{"type":"function","name":"variableResolutionCostPrecision","inputs":[],"outputs":[{"name":"","type":"uint256","internalType":"uint256"}],"stateMutability":"view"},{"type":"function","name":"version","inputs":[],"outputs":[{"name":"","type":"string","internalType":"string"}],"stateMutability":"view"},{"type":"function","name":"withdraw","inputs":[],"outputs":[],"stateMutability":"nonpayable"},{"type":"event","name":"BalanceChanged","inputs":[{"name":"account","type":"address","indexed":false,"internalType":"address"},{"name":"balance","type":"uint256","indexed":false,"internalType":"uint256"}],"anonymous":false},{"type":"event","name":"ChallengeStatusChanged","inputs":[{"name":"challengedBlockNumber","type":"uint256","indexed":true,"internalType":"uint256"},{"name":"challengedCommitment","type":"bytes","indexed":false,"internalType":"bytes"},{"name":"status","type":"uint8","indexed":false,"internalType":"enum ChallengeStatus"}],"anonymous":false},{"type":"event","name":"Initialized","inputs":[{"name":"version","type":"uint8","indexed":false,"internalType":"uint8"}],"anonymous":false},{"type":"event","name":"OwnershipTransferred","inputs":[{"name":"previousOwner","type":"address","indexed":true,"internalType":"address"},{"name":"newOwner","type":"address","indexed":true,"internalType":"address"}],"anonymous":false},{"type":"event","name":"RequiredBondSizeChanged","inputs":[{"name":"challengeWindow","type":"uint256","indexed":false,"internalType":"uint256"}],"anonymous":false},{"type":"event","name":"ResolverRefundPercentageChanged","inputs":[{"name":"resolverRefundPercentage","type":"uint256","indexed":false,"internalType":"uint256"}],"anonymous":false},{"type":"error","name":"BondTooLow","inputs":[{"name":"balance","type":"uint256","internalType":"uint256"},{"name":"required","type":"uint256","internalType":"uint256"}]},{"type":"error","name":"ChallengeExists","inputs":[]},{"type":"error","name":"ChallengeNotActive","inputs":[]},{"type":"error","name":"ChallengeNotExpired","inputs":[]},{"type":"error","name":"ChallengeWindowNotOpen","inputs":[]},{"type":"error","name":"InvalidCommitmentLength","inputs":[{"name":"commitmentType","type":"uint8","internalType":"uint8"},{"name":"expectedLength","type":"uint256","internalType":"uint256"},{"name":"actualLength","type":"uint256","internalType":"uint256"}]},{"type":"error","name":"InvalidInputData","inputs":[{"name":"providedDataCommitment","type":"bytes","internalType":"bytes"},{"name":"expectedCommitment","type":"bytes","internalType":"bytes"}]},{"type":"error","name":"InvalidResolverRefundPercentage","inputs":[{"name":"invalidResolverRefundPercentage","type":"uint256","internalType":"uint256"}]},{"type":"error","name":"UnknownCommitmentType","inputs":[{"name":"commitmentType","type":"uint8","internalType":"uint8"}]},{"type":"error","name":"WithdrawalFailed","inputs":[]}],"bytecode":{"object":"0x60806040523480156200001157600080fd5b506200002461dead60008080806200002a565b62000392565b600054610100900460ff16158080156200004b5750600054600160ff909116105b806200007b575062000068306200018c60201b6200100e1760201c565b1580156200007b575060005460ff166001145b620000e45760405162461bcd60e51b815260206004820152602e60248201527f496e697469616c697a61626c653a20636f6e747261637420697320616c72656160448201526d191e481a5b9a5d1a585b1a5e995960921b60648201526084015b60405180910390fd5b6000805460ff19166001179055801562000108576000805461ff0019166101001790555b620001126200019b565b60658590556066849055620001278362000203565b620001328262000248565b6200013d866200027d565b801562000184576000805461ff0019169055604051600181527f7f26b83ff96e1f2b6a682f133852f6798a09c465da95921460cefb38474024989060200160405180910390a15b505050505050565b6001600160a01b03163b151590565b600054610100900460ff16620001f75760405162461bcd60e51b815260206004820152602b602482015260008051602062001d7783398151915260448201526a6e697469616c697a696e6760a81b6064820152608401620000db565b62000201620002cf565b565b6200020d62000336565b60678190556040518181527f4468d695a0389e5f9e8ef0c9aee6d84e74cc0d0e0a28c8413badb54697d1bbae9060200160405180910390a150565b6200025262000336565b60648111156200027857604051622d549d60e71b815260048101829052602401620000db565b606855565b603380546001600160a01b038381166001600160a01b0319831681179093556040519116919082907f8be0079c531659141344cd1fd0a4f28419497f9722a3daafe3b4186f6b6457e090600090a35050565b600054610100900460ff166200032b5760405162461bcd60e51b815260206004820152602b602482015260008051602062001d7783398151915260448201526a6e697469616c697a696e6760a81b6064820152608401620000db565b62000201336200027d565b6033546001600160a01b03163314620002015760405162461bcd60e51b815260206004820181905260248201527f4f776e61626c653a2063616c6c6572206973206e6f7420746865206f776e65726044820152606401620000db565b6119d580620003a26000396000f3fe6080604052600436106101845760003560e01c8063848afb3d116100d6578063956118521161007f578063d7d04e5411610059578063d7d04e5414610459578063f2fde38b14610479578063f92ad2191461049957600080fd5b80639561185214610427578063a03aafbf1461043e578063d0e30db01461045157600080fd5b80638ecb85e1116100b05780638ecb85e1146103d157806393988233146103e757806393fb19441461040757600080fd5b8063848afb3d1461031d578063861a1412146103865780638da5cb5b1461039c57600080fd5b80634ebaf3ce11610138578063715018a611610112578063715018a6146102bb57806379e8a8b3146102d05780637ae929d9146102fd57600080fd5b80634ebaf3ce1461023957806354fd4d501461024f5780637099c581146102a557600080fd5b806327e235e31161016957806327e235e3146101d7578063336409fd146102045780633ccfd60b1461022457600080fd5b806321cf39ee1461019857806323c30f59146101c157600080fd5b36610193576101916104b9565b005b600080fd5b3480156101a457600080fd5b506101ae60665481565b6040519081526020015b60405180910390f35b3480156101cd57600080fd5b506101ae61410081565b3480156101e357600080fd5b506101ae6101f2366004611539565b60696020526000908152604090205481565b34801561021057600080fd5b5061019161021f366004611554565b610527565b34801561023057600080fd5b50610191610577565b34801561024557600080fd5b506101ae6103e881565b34801561025b57600080fd5b506102986040518060400160405280600581526020017f312e302e3000000000000000000000000000000000000000000000000000000081525081565b6040516101b891906115d8565b3480156102b157600080fd5b506101ae60675481565b3480156102c757600080fd5b50610191610611565b3480156102dc57600080fd5b506102f06102eb366004611634565b610625565b6040516101b891906116ea565b34801561030957600080fd5b506101916103183660046116f8565b6106e8565b34801561032957600080fd5b5061033d610338366004611634565b610884565b6040516101b89190815173ffffffffffffffffffffffffffffffffffffffff16815260208083015190820152604080830151908201526060918201519181019190915260800190565b34801561039257600080fd5b506101ae60655481565b3480156103a857600080fd5b5060335460405173ffffffffffffffffffffffffffffffffffffffff90911681526020016101b8565b3480156103dd57600080fd5b506101ae60685481565b3480156103f357600080fd5b50610191610402366004611634565b610940565b34801561041357600080fd5b50610191610422366004611772565b610a72565b34801561043357600080fd5b506101ae62011cdd81565b61019161044c366004611634565b610b0f565b6101916104b9565b34801561046557600080fd5b50610191610474366004611554565b610d58565b34801561048557600080fd5b50610191610494366004611539565b610d9b565b3480156104a557600080fd5b506101916104b43660046117b4565b610e52565b33600090815260696020526040812080543492906104d8908490611825565b909155505033600081815260696020908152604091829020548251938452908301527fa448afda7ea1e3a7a10fcab0c29fe9a9dd85791503bf0171f281521551c7ec05910160405180910390a1565b61052f61102a565b6064811115610572576040517f16aa4e80000000000000000000000000000000000000000000000000000000008152600481018290526024015b60405180910390fd5b606855565b336000818152606960209081526040808320805490849055815194855291840192909252917fa448afda7ea1e3a7a10fcab0c29fe9a9dd85791503bf0171f281521551c7ec05910160405180910390a160006105d4335a846110ab565b90508061060d576040517f27fcd9d100000000000000000000000000000000000000000000000000000000815260040160405180910390fd5b5050565b61061961102a565b61062360006110c1565b565b6000838152606a60205260408082209051829190610646908690869061183d565b9081526040805160209281900383018120608082018352805473ffffffffffffffffffffffffffffffffffffffff16808352600182015494830194909452600281015492820192909252600390910154606082015291506106ab5760009150506106e1565b6060810151156106bf5760029150506106e1565b6106cc8160400151611138565b156106db5760019150506106e1565b60039150505b9392505050565b6106f28484610a72565b60016106ff868686610625565b600381111561071057610710611680565b14610747576040517fbeb11d3b00000000000000000000000000000000000000000000000000000000815260040160405180910390fd5b60006107538585611151565b9050606060ff82166107a15761079e84848080601f01602080910402602001604051908101604052809392919081815260200183838082843760009201919091525061116992505050565b90505b85856040516107b192919061183d565b60405180910390208180519060200120146107fe578086866040517f1a0bbf9f00000000000000000000000000000000000000000000000000000000815260040161056993929190611896565b6000878152606a6020526040808220905161081c908990899061183d565b908152604051908190036020018120436003820155915088907fc5d8c630ba2fdacb1db24c4599df78c7fb8cf97b5aecde34939597f6697bb1ad90610867908a908a906002906118c6565b60405180910390a261087a81853361119c565b5050505050505050565b6108c56040518060800160405280600073ffffffffffffffffffffffffffffffffffffffff1681526020016000815260200160008152602001600081525090565b6000848152606a60205260409081902090516108e4908590859061183d565b908152604080519182900360209081018320608084018352805473ffffffffffffffffffffffffffffffffffffffff16845260018101549184019190915260028101549183019190915260030154606082015290509392505050565b600361094d848484610625565b600381111561095e5761095e611680565b14610995576040517f151f07fe00000000000000000000000000000000000000000000000000000000815260040160405180910390fd5b6000838152606a602052604080822090516109b3908590859061183d565b90815260408051602092819003830190206001810154815473ffffffffffffffffffffffffffffffffffffffff16600090815260699094529183208054919450919290610a01908490611825565b9091555050600060018201819055815473ffffffffffffffffffffffffffffffffffffffff1680825260696020908152604092839020548351928352908201527fa448afda7ea1e3a7a10fcab0c29fe9a9dd85791503bf0171f281521551c7ec05910160405180910390a150505050565b6000610a7e8383611151565b905060ff8116610ad85760218214610ad3576040517ffd9a7e5b000000000000000000000000000000000000000000000000000000008152600060048201526021602482015260448101839052606401610569565b505050565b6040517f81ff071300000000000000000000000000000000000000000000000000000000815260ff82166004820152602401610569565b610b198282610a72565b610b216104b9565b606754336000908152606960205260409020541015610b895733600090815260696020526040908190205460675491517e0155b50000000000000000000000000000000000000000000000000000000081526105699290600401918252602082015260400190565b6000610b96848484610625565b6003811115610ba757610ba7611680565b14610bde576040517f9bb6c64e00000000000000000000000000000000000000000000000000000000815260040160405180910390fd5b610be7836113bc565b610c1d576040517ff9e0d1f300000000000000000000000000000000000000000000000000000000815260040160405180910390fd5b6067543360009081526069602052604081208054909190610c3f9084906118f1565b9250508190555060405180608001604052803373ffffffffffffffffffffffffffffffffffffffff16815260200160675481526020014381526020016000815250606a60008581526020019081526020016000208383604051610ca392919061183d565b9081526040805160209281900383018120845181547fffffffffffffffffffffffff00000000000000000000000000000000000000001673ffffffffffffffffffffffffffffffffffffffff9091161781559284015160018085019190915591840151600284015560609093015160039092019190915584917fc5d8c630ba2fdacb1db24c4599df78c7fb8cf97b5aecde34939597f6697bb1ad91610d4b91869186916118c6565b60405180910390a2505050565b610d6061102a565b60678190556040518181527f4468d695a0389e5f9e8ef0c9aee6d84e74cc0d0e0a28c8413badb54697d1bbae9060200160405180910390a150565b610da361102a565b73ffffffffffffffffffffffffffffffffffffffff8116610e46576040517f08c379a000000000000000000000000000000000000000000000000000000000815260206004820152602660248201527f4f776e61626c653a206e6577206f776e657220697320746865207a65726f206160448201527f64647265737300000000000000000000000000000000000000000000000000006064820152608401610569565b610e4f816110c1565b50565b600054610100900460ff1615808015610e725750600054600160ff909116105b80610e8c5750303b158015610e8c575060005460ff166001145b610f18576040517f08c379a000000000000000000000000000000000000000000000000000000000815260206004820152602e60248201527f496e697469616c697a61626c653a20636f6e747261637420697320616c72656160448201527f647920696e697469616c697a65640000000000000000000000000000000000006064820152608401610569565b600080547fffffffffffffffffffffffffffffffffffffffffffffffffffffffffffffff001660011790558015610f7657600080547fffffffffffffffffffffffffffffffffffffffffffffffffffffffffffff00ff166101001790555b610f7e6113d6565b60658590556066849055610f9183610d58565b610f9a82610527565b610fa3866110c1565b801561100657600080547fffffffffffffffffffffffffffffffffffffffffffffffffffffffffffff00ff169055604051600181527f7f26b83ff96e1f2b6a682f133852f6798a09c465da95921460cefb38474024989060200160405180910390a15b505050505050565b73ffffffffffffffffffffffffffffffffffffffff163b151590565b60335473ffffffffffffffffffffffffffffffffffffffff163314610623576040517f08c379a000000000000000000000000000000000000000000000000000000000815260206004820181905260248201527f4f776e61626c653a2063616c6c6572206973206e6f7420746865206f776e65726044820152606401610569565b600080600080600080868989f195945050505050565b6033805473ffffffffffffffffffffffffffffffffffffffff8381167fffffffffffffffffffffffff0000000000000000000000000000000000000000831681179093556040519116919082907f8be0079c531659141344cd1fd0a4f28419497f9722a3daafe3b4186f6b6457e090600090a35050565b6000606654826111489190611825565b43111592915050565b600061115d8284611908565b60f81c90505b92915050565b80516020918201206040805160009381019390935260218084019290925280518084039092018252604190920190915290565b6001830154835473ffffffffffffffffffffffffffffffffffffffff166000486103e86111cb61410088611950565b6111d5919061198d565b6111e29062011cdd611825565b6111ec9190611950565b90508083111561129e5761120081846118f1565b73ffffffffffffffffffffffffffffffffffffffff831660009081526069602052604081208054909190611235908490611825565b909155505073ffffffffffffffffffffffffffffffffffffffff82166000818152606960209081526040918290205482519384529083015291935083917fa448afda7ea1e3a7a10fcab0c29fe9a9dd85791503bf0171f281521551c7ec05910160405180910390a15b60006064606854836112b09190611950565b6112ba919061198d565b9050838111156112c75750825b80156113745773ffffffffffffffffffffffffffffffffffffffff851660009081526069602052604081208054839290611302908490611825565b90915550611312905081856118f1565b73ffffffffffffffffffffffffffffffffffffffff8616600081815260696020908152604091829020548251938452908301529195507fa448afda7ea1e3a7a10fcab0c29fe9a9dd85791503bf0171f281521551c7ec05910160405180910390a15b83156113a95760405160009085156108fc0290869083818181858288f193505050501580156113a7573d6000803e3d6000fd5b505b6000876001018190555050505050505050565b600081431015801561116357506065546111489083611825565b600054610100900460ff1661146d576040517f08c379a000000000000000000000000000000000000000000000000000000000815260206004820152602b60248201527f496e697469616c697a61626c653a20636f6e7472616374206973206e6f74206960448201527f6e697469616c697a696e670000000000000000000000000000000000000000006064820152608401610569565b610623600054610100900460ff16611507576040517f08c379a000000000000000000000000000000000000000000000000000000000815260206004820152602b60248201527f496e697469616c697a61626c653a20636f6e7472616374206973206e6f74206960448201527f6e697469616c697a696e670000000000000000000000000000000000000000006064820152608401610569565b610623336110c1565b803573ffffffffffffffffffffffffffffffffffffffff8116811461153457600080fd5b919050565b60006020828403121561154b57600080fd5b6106e182611510565b60006020828403121561156657600080fd5b5035919050565b6000815180845260005b8181101561159357602081850181015186830182015201611577565b818111156115a5576000602083870101525b50601f017fffffffffffffffffffffffffffffffffffffffffffffffffffffffffffffffe0169290920160200192915050565b6020815260006106e1602083018461156d565b60008083601f8401126115fd57600080fd5b50813567ffffffffffffffff81111561161557600080fd5b60208301915083602082850101111561162d57600080fd5b9250929050565b60008060006040848603121561164957600080fd5b83359250602084013567ffffffffffffffff81111561166757600080fd5b611673868287016115eb565b9497909650939450505050565b7f4e487b7100000000000000000000000000000000000000000000000000000000600052602160045260246000fd5b600481106116e6577f4e487b7100000000000000000000000000000000000000000000000000000000600052602160045260246000fd5b9052565b6020810161116382846116af565b60008060008060006060868803121561171057600080fd5b85359450602086013567ffffffffffffffff8082111561172f57600080fd5b61173b89838a016115eb565b9096509450604088013591508082111561175457600080fd5b50611761888289016115eb565b969995985093965092949392505050565b6000806020838503121561178557600080fd5b823567ffffffffffffffff81111561179c57600080fd5b6117a8858286016115eb565b90969095509350505050565b600080600080600060a086880312156117cc57600080fd5b6117d586611510565b97602087013597506040870135966060810135965060800135945092505050565b7f4e487b7100000000000000000000000000000000000000000000000000000000600052601160045260246000fd5b60008219821115611838576118386117f6565b500190565b8183823760009101908152919050565b8183528181602085013750600060208284010152600060207fffffffffffffffffffffffffffffffffffffffffffffffffffffffffffffffe0601f840116840101905092915050565b6040815260006118a9604083018661156d565b82810360208401526118bc81858761184d565b9695505050505050565b6040815260006118da60408301858761184d565b90506118e960208301846116af565b949350505050565b600082821015611903576119036117f6565b500390565b7fff0000000000000000000000000000000000000000000000000000000000000081358181169160018510156119485780818660010360031b1b83161692505b505092915050565b6000817fffffffffffffffffffffffffffffffffffffffffffffffffffffffffffffffff0483118215151615611988576119886117f6565b500290565b6000826119c3577f4e487b7100000000000000000000000000000000000000000000000000000000600052601260045260246000fd5b50049056fea164736f6c634300080f000a496e697469616c697a61626c653a20636f6e7472616374206973206e6f742069","linkReferences":{}},"methodIdentifiers":{"balances(address)":"27e235e3","bondSize()":"7099c581","challenge(uint256,bytes)":"a03aafbf","challengeWindow()":"861a1412","deposit()":"d0e30db0","fixedResolutionCost()":"95611852","getChallenge(uint256,bytes)":"848afb3d","getChallengeStatus(uint256,bytes)":"79e8a8b3","initialize(address,uint256,uint256,uint256,uint256)":"f92ad219","owner()":"8da5cb5b","renounceOwnership()":"715018a6","resolve(uint256,bytes,bytes)":"7ae929d9","resolveWindow()":"21cf39ee","resolverRefundPercentage()":"8ecb85e1","setBondSize(uint256)":"d7d04e54","setResolverRefundPercentage(uint256)":"336409fd","transferOwnership(address)":"f2fde38b","unlockBond(uint256,bytes)":"93988233","validateCommitment(bytes)":"93fb1944","variableResolutionCost()":"23c30f59","variableResolutionCostPrecision()":"4ebaf3ce","version()":"54fd4d50","withdraw()":"3ccfd60b"},"storageLayout":{"storage":[{"astId":45180,"contract":"src/L1/DataAvailabilityChallenge.sol:DataAvailabilityChallenge","label":"_initialized","offset":0,"slot":"0","type":"t_uint8"},{"astId":45183,"contract":"src/L1/DataAvailabilityChallenge.sol:DataAvailabilityChallenge","label":"_initializing","offset":1,"slot":"0","type":"t_bool"},{"astId":45608,"contract":"src/L1/DataAvailabilityChallenge.sol:DataAvailabilityChallenge","label":"__gap","offset":0,"slot":"1","type":"t_array(t_uint256)50_storage"},{"astId":45052,"contract":"src/L1/DataAvailabilityChallenge.sol:DataAvailabilityChallenge","label":"_owner","offset":0,"slot":"51","type":"t_address"},{"astId":45172,"contract":"src/L1/DataAvailabilityChallenge.sol:DataAvailabilityChallenge","label":"__gap","offset":0,"slot":"52","type":"t_array(t_uint256)49_storage"},{"astId":74537,"contract":"src/L1/DataAvailabilityChallenge.sol:DataAvailabilityChallenge","label":"challengeWindow","offset":0,"slot":"101","type":"t_uint256"},{"astId":74540,"contract":"src/L1/DataAvailabilityChallenge.sol:DataAvailabilityChallenge","label":"resolveWindow","offset":0,"slot":"102","type":"t_uint256"},{"astId":74543,"contract":"src/L1/DataAvailabilityChallenge.sol:DataAvailabilityChallenge","label":"bondSize","offset":0,"slot":"103","type":"t_uint256"},{"astId":74546,"contract":"src/L1/DataAvailabilityChallenge.sol:DataAvailabilityChallenge","label":"resolverRefundPercentage","offset":0,"slot":"104","type":"t_uint256"},{"astId":74551,"contract":"src/L1/DataAvailabilityChallenge.sol:DataAvailabilityChallenge","label":"balances","offset":0,"slot":"105","type":"t_mapping(t_address,t_uint256)"},{"astId":74559,"contract":"src/L1/DataAvailabilityChallenge.sol:DataAvailabilityChallenge","label":"challenges","offset":0,"slot":"106","type":"t_mapping(t_uint256,t_mapping(t_bytes_memory_ptr,t_struct(Challenge)74438_storage))"}],"types":{"t_address":{"encoding":"inplace","label":"address","numberOfBytes":"20"},"t_array(t_uint256)49_storage":{"encoding":"inplace","label":"uint256[49]","numberOfBytes":"1568","base":"t_uint256"},"t_array(t_uint256)50_storage":{"encoding":"inplace","label":"uint256[50]","numberOfBytes":"1600","base":"t_uint256"},"t_bool":{"encoding":"inplace","label":"bool","numberOfBytes":"1"},"t_bytes_memory_ptr":{"encoding":"bytes","label":"bytes","numberOfBytes":"32"},"t_mapping(t_address,t_uint256)":{"encoding":"mapping","key":"t_address","label":"mapping(address => uint256)","numberOfBytes":"32","value":"t_uint256"},"t_mapping(t_bytes_memory_ptr,t_struct(Challenge)74438_storage)":{"encoding":"mapping","key":"t_bytes_memory_ptr","label":"mapping(bytes => struct Challenge)","numberOfBytes":"32","value":"t_struct(Challenge)74438_storage"},"t_mapping(t_uint256,t_mapping(t_bytes_memory_ptr,t_struct(Challenge)74438_storage))":{"encoding":"mapping","key":"t_uint256","label":"mapping(uint256 => mapping(bytes => struct Challenge))","numberOfBytes":"32","value":"t_mapping(t_bytes_memory_ptr,t_struct(Challenge)74438_storage)"},"t_struct(Challenge)74438_storage":{"encoding":"inplace","label":"struct Challenge","numberOfBytes":"128","members":[{"astId":74431,"contract":"src/L1/DataAvailabilityChallenge.sol:DataAvailabilityChallenge","label":"challenger","offset":0,"slot":"0","type":"t_address"},{"astId":74433,"contract":"src/L1/DataAvailabilityChallenge.sol:DataAvailabilityChallenge","label":"lockedBond","offset":0,"slot":"1","type":"t_uint256"},{"astId":74435,"contract":"src/L1/DataAvailabilityChallenge.sol:DataAvailabilityChallenge","label":"startBlock","offset":0,"slot":"2","type":"t_uint256"},{"astId":74437,"contract":"src/L1/DataAvailabilityChallenge.sol:DataAvailabilityChallenge","label":"resolvedBlock","offset":0,"slot":"3","type":"t_uint256"}]},"t_uint256":{"encoding":"inplace","label":"uint256","numberOfBytes":"32"},"t_uint8":{"encoding":"inplace","label":"uint8","numberOfBytes":"1"}}},"userdoc":{"version":1,"kind":"user","methods":{"balances(address)":{"notice":"A mapping from addresses to their bond balance in the contract."},"bondSize()":{"notice":"The amount required to post a challenge."},"challenge(uint256,bytes)":{"notice":"Challenge a commitment at a given block number."},"challengeWindow()":{"notice":"The block interval during which a commitment can be challenged."},"constructor":{"notice":"Constructs the DataAvailabilityChallenge contract. Cannot set         the owner to `address(0)` due to the Ownable contract's         implementation, so set it to `address(0xdEaD)`."},"deposit()":{"notice":"Post a bond as prerequisite for challenging a commitment."},"fixedResolutionCost()":{"notice":"The fixed cost of resolving a challenge."},"getChallenge(uint256,bytes)":{"notice":"Returns a challenge for the given block number and commitment."},"getChallengeStatus(uint256,bytes)":{"notice":"Returns the status of a challenge for a given challenged block number and challenged commitment."},"initialize(address,uint256,uint256,uint256,uint256)":{"notice":"Initializes the contract."},"resolve(uint256,bytes,bytes)":{"notice":"Resolve a challenge by providing the data corresponding to the challenged commitment."},"resolveWindow()":{"notice":"The block interval during which a challenge can be resolved."},"resolverRefundPercentage()":{"notice":"The percentage of the resolving cost to be refunded to the resolver."},"setBondSize(uint256)":{"notice":"Sets the bond size."},"setResolverRefundPercentage(uint256)":{"notice":"Sets the percentage of the resolving cost to be refunded to the resolver."},"unlockBond(uint256,bytes)":{"notice":"Unlock the bond associated wth an expired challenge."},"validateCommitment(bytes)":{"notice":"Validate that a given commitment has a known type and the expected length for this type."},"variableResolutionCost()":{"notice":"The variable cost of resolving a callenge per byte scaled by the variableResolutionCostPrecision."},"version()":{"notice":"Semantic version."},"withdraw()":{"notice":"Withdraw a user's unlocked bond."}},"events":{"BalanceChanged(address,uint256)":{"notice":"An event that is emitted when a user's bond balance changes."},"ChallengeStatusChanged(uint256,bytes,uint8)":{"notice":"An event that is emitted when the status of a challenge changes."},"RequiredBondSizeChanged(uint256)":{"notice":"An event that is emitted when the bond size required to initiate a challenge changes."},"ResolverRefundPercentageChanged(uint256)":{"notice":"An event that is emitted when the percentage of the resolving cost to be refunded to the resolver changes."}},"errors":{"BondTooLow(uint256,uint256)":[{"notice":"Error for when the challenger's bond is too low."}],"ChallengeExists()":[{"notice":"Error for when attempting to challenge a commitment that already has a challenge."}],"ChallengeNotActive()":[{"notice":"Error for when attempting to resolve a challenge that is not active."}],"ChallengeNotExpired()":[{"notice":"Error for when attempting to unlock a bond from a challenge that is not expired."}],"ChallengeWindowNotOpen()":[{"notice":"Error for when attempting to challenge a commitment that is not in the challenge window."}],"InvalidCommitmentLength(uint8,uint256,uint256)":[{"notice":"Error for when the commitment length does not match the commitment type"}],"InvalidInputData(bytes,bytes)":[{"notice":"Error for when the provided input data doesn't match the commitment."}],"InvalidResolverRefundPercentage(uint256)":[{"notice":"Error for when the provided resolver refund percentage exceeds 100%."}],"UnknownCommitmentType(uint8)":[{"notice":"Error for when a the type of a given commitment is unknown"}],"WithdrawalFailed()":[{"notice":"Error for when the call to withdraw a bond failed."}]},"notice":"This contract enables data availability of a data commitment at a given block number to be challenged.         To challenge a commitment, the challenger must first post a bond (bondSize).         Challenging a commitment is only possible within a certain block interval (challengeWindow) after the         commitment was made.         If the challenge is not resolved within a certain block interval (resolveWindow), the challenge can be         expired.         If a challenge is expired, the challenger's bond is unlocked and the challenged commitment is added to the         chain of expired challenges."},"devdoc":{"version":1,"kind":"dev","methods":{"challenge(uint256,bytes)":{"details":"The block number parameter is necessary for the contract to verify the challenge window,      since the contract cannot access the block number of the commitment.      The function reverts if the commitment type (first byte) is unknown,      if the caller does not have a bond or if the challenge already exists.","params":{"challengedBlockNumber":"The block number at which the commitment was made.","challengedCommitment":"The commitment that is being challenged."}},"getChallenge(uint256,bytes)":{"details":"Unlike with a public `challenges` mapping, we can return a Challenge struct instead of tuple.","params":{"challengedBlockNumber":"The block number at which the commitment was made.","challengedCommitment":"The commitment that is being challenged."},"returns":{"_0":"The challenge struct."}},"getChallengeStatus(uint256,bytes)":{"params":{"challengedBlockNumber":"The block number at which the commitment was made.","challengedCommitment":"The commitment that is being challenged."},"returns":{"_0":"The status of the challenge."}},"initialize(address,uint256,uint256,uint256,uint256)":{"params":{"_bondSize":"The amount required to post a challenge.","_challengeWindow":"The block interval during which a commitment can be challenged.","_owner":"The owner of the contract.","_resolveWindow":"The block interval during which a challenge can be resolved."}},"owner()":{"details":"Returns the address of the current owner."},"renounceOwnership()":{"details":"Leaves the contract without owner. It will not be possible to call `onlyOwner` functions anymore. Can only be called by the current owner. NOTE: Renouncing ownership will leave the contract without an owner, thereby removing any functionality that is only available to the owner."},"resolve(uint256,bytes,bytes)":{"details":"The function computes a commitment from the provided resolveData and verifies that it matches the challenged commitment.      It reverts if the commitment type is unknown, if the data doesn't match the commitment,      if the challenge is not active or if the resolve window is not open.","params":{"challengedBlockNumber":"The block number at which the commitment was made.","challengedCommitment":"The challenged commitment that is being resolved.","resolveData":"The pre-image data corresponding to the challenged commitment."}},"setBondSize(uint256)":{"params":{"_bondSize":"The amount required to post a challenge."}},"setResolverRefundPercentage(uint256)":{"details":"The function reverts if the provided percentage is above 100, since the refund logic assumes a value smaller or equal to 100%.","params":{"_resolverRefundPercentage":"The percentage of the resolving cost to be refunded to the resolver."}},"transferOwnership(address)":{"details":"Transfers ownership of the contract to a new account (`newOwner`). Can only be called by the current owner."},"unlockBond(uint256,bytes)":{"details":"The function reverts if the challenge is not expired.      If the expiration is successful, the challenger's bond is unlocked.","params":{"challengedBlockNumber":"The block number at which the commitment was made.","challengedCommitment":"The commitment that is being challenged."}},"validateCommitment(bytes)":{"details":"The type of a commitment is stored in its first byte.      The function reverts with `UnknownCommitmentType` if the type is not known and      with `InvalidCommitmentLength` if the commitment has an unexpected length.","params":{"commitment":"The commitment for which to check the type."}}},"events":{"ChallengeStatusChanged(uint256,bytes,uint8)":{"params":{"challengedBlockNumber":"The block number at which the commitment was made.","challengedCommitment":"The commitment that is being challenged.","status":"The new status of the challenge."}}},"title":"DataAvailabilityChallenge"},"id":101}